:020000040000FA
:100000008316F0308600831286016E30A0006430C3
:10001000A1002002031D1B282C202E201430A30039
:100020002D30A4002830A2002402031D1F283720F1
:100030003B20232000282920A10A2108092832205A
:10004000A20A22081428A10332302102031D23280A
:10005000080006143B2008000610080086143B2008
:100060008610080006153B2006113B200800861567
:100070003B20861108000A30A7006430A600FA3041
:10008000A5000000A50B4128A60B3F28A70B3D2883
:02009000080066
:040092000034003402
:00000001FF
